{
  "_format": "hh-sol-artifact-1",
  "contractName": "TokenPreSaleBooking",
  "sourceName": "contracts/TokenPreSaleBooking.sol",
  "abi": [
    {
      "inputs": [],
      "stateMutability": "nonpayable",
      "type": "constructor"
    },
    {
      "anonymous": false,
      "inputs": [
        {
          "indexed": true,
          "internalType": "uint256",
          "name": "id",
          "type": "uint256"
        },
        {
          "indexed": false,
          "internalType": "address",
          "name": "collector_address",
          "type": "address"
        },
        {
          "indexed": false,
          "internalType": "uint256",
          "name": "timestamp",
          "type": "uint256"
        }
      ],
      "name": "CollectorUpdated",
      "type": "event"
    },
    {
      "anonymous": false,
      "inputs": [
        {
          "indexed": false,
          "internalType": "uint8",
          "name": "version",
          "type": "uint8"
        }
      ],
      "name": "Initialized",
      "type": "event"
    },
    {
      "anonymous": false,
      "inputs": [
        {
          "indexed": true,
          "internalType": "address",
          "name": "market",
          "type": "address"
        },
        {
          "indexed": false,
          "internalType": "uint256",
          "name": "timestamp",
          "type": "uint256"
        }
      ],
      "name": "MarketSupportAdded",
      "type": "event"
    },
    {
      "anonymous": false,
      "inputs": [
        {
          "indexed": true,
          "internalType": "address",
          "name": "market",
          "type": "address"
        },
        {
          "indexed": false,
          "internalType": "uint256",
          "name": "timestamp",
          "type": "uint256"
        }
      ],
      "name": "MarketSupportRemoved",
      "type": "event"
    },
    {
      "anonymous": false,
      "inputs": [
        {
          "indexed": true,
          "internalType": "uint256",
          "name": "id",
          "type": "uint256"
        },
        {
          "components": [
            {
              "internalType": "uint256",
              "name": "startTime",
              "type": "uint256"
            },
            {
              "internalType": "uint256",
              "name": "endTime",
              "type": "uint256"
            },
            {
              "internalType": "uint256",
              "name": "min_purchases_in_usd",
              "type": "uint256"
            }
          ],
          "indexed": false,
          "internalType": "struct TokenPreSaleBooking.Presale",
          "name": "presale",
          "type": "tuple"
        },
        {
          "indexed": false,
          "internalType": "uint256",
          "name": "timestamp",
          "type": "uint256"
        }
      ],
      "name": "PresaleInfoUpdated",
      "type": "event"
    },
    {
      "anonymous": false,
      "inputs": [
        {
          "indexed": true,
          "internalType": "uint256",
          "name": "id",
          "type": "uint256"
        },
        {
          "indexed": false,
          "internalType": "uint256",
          "name": "timestamp",
          "type": "uint256"
        }
      ],
      "name": "PresalePaused",
      "type": "event"
    },
    {
      "anonymous": false,
      "inputs": [
        {
          "indexed": true,
          "internalType": "uint256",
          "name": "id",
          "type": "uint256"
        },
        {
          "indexed": false,
          "internalType": "uint256",
          "name": "timestamp",
          "type": "uint256"
        }
      ],
      "name": "PresaleUnpaused",
      "type": "event"
    },
    {
      "anonymous": false,
      "inputs": [
        {
          "indexed": true,
          "internalType": "bytes32",
          "name": "role",
          "type": "bytes32"
        },
        {
          "indexed": true,
          "internalType": "bytes32",
          "name": "previousAdminRole",
          "type": "bytes32"
        },
        {
          "indexed": true,
          "internalType": "bytes32",
          "name": "newAdminRole",
          "type": "bytes32"
        }
      ],
      "name": "RoleAdminChanged",
      "type": "event"
    },
    {
      "anonymous": false,
      "inputs": [
        {
          "indexed": true,
          "internalType": "bytes32",
          "name": "role",
          "type": "bytes32"
        },
        {
          "indexed": true,
          "internalType": "address",
          "name": "account",
          "type": "address"
        },
        {
          "indexed": true,
          "internalType": "address",
          "name": "sender",
          "type": "address"
        }
      ],
      "name": "RoleGranted",
      "type": "event"
    },
    {
      "anonymous": false,
      "inputs": [
        {
          "indexed": true,
          "internalType": "bytes32",
          "name": "role",
          "type": "bytes32"
        },
        {
          "indexed": true,
          "internalType": "address",
          "name": "account",
          "type": "address"
        },
        {
          "indexed": true,
          "internalType": "address",
          "name": "sender",
          "type": "address"
        }
      ],
      "name": "RoleRevoked",
      "type": "event"
    },
    {
      "anonymous": false,
      "inputs": [
        {
          "indexed": true,
          "internalType": "address",
          "name": "user",
          "type": "address"
        },
        {
          "indexed": true,
          "internalType": "uint256",
          "name": "id",
          "type": "uint256"
        },
        {
          "components": [
            {
              "internalType": "uint256",
              "name": "bookingId",
              "type": "uint256"
            },
            {
              "internalType": "address",
              "name": "user",
              "type": "address"
            },
            {
              "internalType": "address",
              "name": "booking_market",
              "type": "address"
            },
            {
              "internalType": "uint256",
              "name": "booking_amount",
              "type": "uint256"
            },
            {
              "internalType": "bool",
              "name": "havePreBooked",
              "type": "bool"
            },
            {
              "internalType": "uint256",
              "name": "bookingTime",
              "type": "uint256"
            },
            {
              "internalType": "bool",
              "name": "isAllowed",
              "type": "bool"
            }
          ],
          "indexed": false,
          "internalType": "struct TokenPreSaleBooking.UserPreBookDetails",
          "name": "userPreBookDetails",
          "type": "tuple"
        },
        {
          "indexed": false,
          "internalType": "uint256",
          "name": "timestamp",
          "type": "uint256"
        }
      ],
      "name": "TokensPreBooked",
      "type": "event"
    },
    {
      "anonymous": false,
      "inputs": [
        {
          "indexed": true,
          "internalType": "address",
          "name": "user",
          "type": "address"
        },
        {
          "indexed": true,
          "internalType": "uint256",
          "name": "id",
          "type": "uint256"
        },
        {
          "components": [
            {
              "internalType": "uint256",
              "name": "bookingId",
              "type": "uint256"
            },
            {
              "internalType": "address",
              "name": "user",
              "type": "address"
            },
            {
              "internalType": "address",
              "name": "booking_market",
              "type": "address"
            },
            {
              "internalType": "uint256",
              "name": "booking_amount",
              "type": "uint256"
            },
            {
              "internalType": "bool",
              "name": "havePreBooked",
              "type": "bool"
            },
            {
              "internalType": "uint256",
              "name": "bookingTime",
              "type": "uint256"
            },
            {
              "internalType": "bool",
              "name": "isAllowed",
              "type": "bool"
            }
          ],
          "indexed": false,
          "internalType": "struct TokenPreSaleBooking.UserPreBookDetails",
          "name": "userPreBookDetails",
          "type": "tuple"
        },
        {
          "indexed": false,
          "internalType": "uint256",
          "name": "timestamp",
          "type": "uint256"
        }
      ],
      "name": "TokensPreBookedRefunded",
      "type": "event"
    },
    {
      "inputs": [],
      "name": "ADMIN",
      "outputs": [
        {
          "internalType": "bytes32",
          "name": "",
          "type": "bytes32"
        }
      ],
      "stateMutability": "view",
      "type": "function"
    },
    {
      "inputs": [],
      "name": "DEFAULT_ADMIN_ROLE",
      "outputs": [
        {
          "internalType": "bytes32",
          "name": "",
          "type": "bytes32"
        }
      ],
      "stateMutability": "view",
      "type": "function"
    },
    {
      "inputs": [
        {
          "internalType": "uint256",
          "name": "",
          "type": "uint256"
        }
      ],
      "name": "booked_user",
      "outputs": [
        {
          "internalType": "address",
          "name": "",
          "type": "address"
        }
      ],
      "stateMutability": "view",
      "type": "function"
    },
    {
      "inputs": [],
      "name": "bookingId",
      "outputs": [
        {
          "internalType": "uint256",
          "name": "",
          "type": "uint256"
        }
      ],
      "stateMutability": "view",
      "type": "function"
    },
    {
      "inputs": [],
      "name": "bookingRefund",
      "outputs": [
        {
          "internalType": "bool",
          "name": "",
          "type": "bool"
        }
      ],
      "stateMutability": "nonpayable",
      "type": "function"
    },
    {
      "inputs": [],
      "name": "getAdmin",
      "outputs": [
        {
          "internalType": "address",
          "name": "",
          "type": "address"
        }
      ],
      "stateMutability": "view",
      "type": "function"
    },
    {
      "inputs": [],
      "name": "getCurrentMaxId",
      "outputs": [
        {
          "internalType": "uint256",
          "name": "",
          "type": "uint256"
        }
      ],
      "stateMutability": "view",
      "type": "function"
    },
    {
      "inputs": [
        {
          "internalType": "bytes32",
          "name": "role",
          "type": "bytes32"
        }
      ],
      "name": "getRoleAdmin",
      "outputs": [
        {
          "internalType": "bytes32",
          "name": "",
          "type": "bytes32"
        }
      ],
      "stateMutability": "view",
      "type": "function"
    },
    {
      "inputs": [
        {
          "internalType": "address",
          "name": "user",
          "type": "address"
        }
      ],
      "name": "getUserBookingDetails",
      "outputs": [
        {
          "components": [
            {
              "internalType": "uint256",
              "name": "bookingId",
              "type": "uint256"
            },
            {
              "internalType": "address",
              "name": "user",
              "type": "address"
            },
            {
              "internalType": "address",
              "name": "booking_market",
              "type": "address"
            },
            {
              "internalType": "uint256",
              "name": "booking_amount",
              "type": "uint256"
            },
            {
              "internalType": "bool",
              "name": "havePreBooked",
              "type": "bool"
            },
            {
              "internalType": "uint256",
              "name": "bookingTime",
              "type": "uint256"
            },
            {
              "internalType": "bool",
              "name": "isAllowed",
              "type": "bool"
            }
          ],
          "internalType": "struct TokenPreSaleBooking.UserPreBookDetails",
          "name": "",
          "type": "tuple"
        }
      ],
      "stateMutability": "view",
      "type": "function"
    },
    {
      "inputs": [
        {
          "internalType": "bytes32",
          "name": "role",
          "type": "bytes32"
        },
        {
          "internalType": "address",
          "name": "account",
          "type": "address"
        }
      ],
      "name": "grantRole",
      "outputs": [],
      "stateMutability": "nonpayable",
      "type": "function"
    },
    {
      "inputs": [
        {
          "internalType": "bytes32",
          "name": "role",
          "type": "bytes32"
        },
        {
          "internalType": "address",
          "name": "account",
          "type": "address"
        }
      ],
      "name": "hasRole",
      "outputs": [
        {
          "internalType": "bool",
          "name": "",
          "type": "bool"
        }
      ],
      "stateMutability": "view",
      "type": "function"
    },
    {
      "inputs": [
        {
          "internalType": "address",
          "name": "user",
          "type": "address"
        }
      ],
      "name": "hasUserPreBooked",
      "outputs": [
        {
          "internalType": "bool",
          "name": "",
          "type": "bool"
        }
      ],
      "stateMutability": "view",
      "type": "function"
    },
    {
      "inputs": [
        {
          "internalType": "uint256",
          "name": "_startTime",
          "type": "uint256"
        },
        {
          "internalType": "uint256",
          "name": "_endTime",
          "type": "uint256"
        },
        {
          "internalType": "uint256",
          "name": "_min_purchases_in_usd",
          "type": "uint256"
        }
      ],
      "name": "initialize",
      "outputs": [],
      "stateMutability": "nonpayable",
      "type": "function"
    },
    {
      "inputs": [],
      "name": "pausePresale",
      "outputs": [],
      "stateMutability": "nonpayable",
      "type": "function"
    },
    {
      "inputs": [
        {
          "internalType": "uint256",
          "name": "amount",
          "type": "uint256"
        },
        {
          "internalType": "address",
          "name": "market",
          "type": "address"
        }
      ],
      "name": "preBooking",
      "outputs": [
        {
          "internalType": "bool",
          "name": "",
          "type": "bool"
        }
      ],
      "stateMutability": "nonpayable",
      "type": "function"
    },
    {
      "inputs": [
        {
          "internalType": "uint256",
          "name": "",
          "type": "uint256"
        }
      ],
      "name": "presale",
      "outputs": [
        {
          "internalType": "uint256",
          "name": "startTime",
          "type": "uint256"
        },
        {
          "internalType": "uint256",
          "name": "endTime",
          "type": "uint256"
        },
        {
          "internalType": "uint256",
          "name": "min_purchases_in_usd",
          "type": "uint256"
        }
      ],
      "stateMutability": "view",
      "type": "function"
    },
    {
      "inputs": [],
      "name": "presaleId",
      "outputs": [
        {
          "internalType": "uint256",
          "name": "",
          "type": "uint256"
        }
      ],
      "stateMutability": "view",
      "type": "function"
    },
    {
      "inputs": [
        {
          "internalType": "address",
          "name": "market",
          "type": "address"
        }
      ],
      "name": "removeMarketSupport",
      "outputs": [],
      "stateMutability": "nonpayable",
      "type": "function"
    },
    {
      "inputs": [
        {
          "internalType": "bytes32",
          "name": "role",
          "type": "bytes32"
        },
        {
          "internalType": "address",
          "name": "account",
          "type": "address"
        }
      ],
      "name": "renounceRole",
      "outputs": [],
      "stateMutability": "nonpayable",
      "type": "function"
    },
    {
      "inputs": [
        {
          "internalType": "bytes32",
          "name": "role",
          "type": "bytes32"
        },
        {
          "internalType": "address",
          "name": "account",
          "type": "address"
        }
      ],
      "name": "revokeRole",
      "outputs": [],
      "stateMutability": "nonpayable",
      "type": "function"
    },
    {
      "inputs": [
        {
          "internalType": "address",
          "name": "_collector_address",
          "type": "address"
        }
      ],
      "name": "setCollectorAddress",
      "outputs": [],
      "stateMutability": "nonpayable",
      "type": "function"
    },
    {
      "inputs": [
        {
          "internalType": "address",
          "name": "market",
          "type": "address"
        }
      ],
      "name": "setMarketSupport",
      "outputs": [],
      "stateMutability": "nonpayable",
      "type": "function"
    },
    {
      "inputs": [
        {
          "internalType": "address",
          "name": "",
          "type": "address"
        }
      ],
      "name": "supported_market",
      "outputs": [
        {
          "internalType": "bool",
          "name": "",
          "type": "bool"
        }
      ],
      "stateMutability": "view",
      "type": "function"
    },
    {
      "inputs": [
        {
          "internalType": "bytes4",
          "name": "interfaceId",
          "type": "bytes4"
        }
      ],
      "name": "supportsInterface",
      "outputs": [
        {
          "internalType": "bool",
          "name": "",
          "type": "bool"
        }
      ],
      "stateMutability": "view",
      "type": "function"
    },
    {
      "inputs": [],
      "name": "unPausePresale",
      "outputs": [],
      "stateMutability": "nonpayable",
      "type": "function"
    },
    {
      "inputs": [
        {
          "internalType": "address",
          "name": "_admin",
          "type": "address"
        }
      ],
      "name": "updateAdmin",
      "outputs": [],
      "stateMutability": "nonpayable",
      "type": "function"
    },
    {
      "inputs": [
        {
          "internalType": "uint256",
          "name": "_startTime",
          "type": "uint256"
        },
        {
          "internalType": "uint256",
          "name": "_endTime",
          "type": "uint256"
        },
        {
          "internalType": "uint256",
          "name": "_min_purchases_in_usd",
          "type": "uint256"
        }
      ],
      "name": "updatePresaleInfo",
      "outputs": [],
      "stateMutability": "nonpayable",
      "type": "function"
    },
    {
      "inputs": [
        {
          "internalType": "address",
          "name": "",
          "type": "address"
        }
      ],
      "name": "userPreBookDetails",
      "outputs": [
        {
          "internalType": "uint256",
          "name": "bookingId",
          "type": "uint256"
        },
        {
          "internalType": "address",
          "name": "user",
          "type": "address"
        },
        {
          "internalType": "address",
          "name": "booking_market",
          "type": "address"
        },
        {
          "internalType": "uint256",
          "name": "booking_amount",
          "type": "uint256"
        },
        {
          "internalType": "bool",
          "name": "havePreBooked",
          "type": "bool"
        },
        {
          "internalType": "uint256",
          "name": "bookingTime",
          "type": "uint256"
        },
        {
          "internalType": "bool",
          "name": "isAllowed",
          "type": "bool"
        }
      ],
      "stateMutability": "view",
      "type": "function"
    }
  ],
  "bytecode": "0x608060405234801561001057600080fd5b50613ce0806100206000396000f3fe608060405234801561001057600080fd5b50600436106101c45760003560e01c806380d85911116100f9578063a217fddf11610097578063d547741f11610071578063d547741f1461050b578063e18e84f914610527578063e2f273bd14610545578063e6ab143414610561576101c4565b8063a217fddf146104a1578063b6f6bdf6146104bf578063ccddaf19146104db576101c4565b806391d14854116100d357806391d148541461042d5780639211eb8e1461045d5780639d6b3fcf1461047b5780639f9742c814610497576101c4565b806380d85911146103ab57806383eb5d5c146103c7578063903d6c65146103f7576101c4565b80632f2ff15d1161016657806362e9fc661161014057806362e9fc661461030f5780636e9960c31461032d578063773199501461034b5780637ff5d2ad1461037b576101c4565b80632f2ff15d146102a757806336568abe146102c35780634c9c52c1146102df576101c4565b80630eba6cb9116101a25780630eba6cb914610221578063248a9ca31461023d5780632a0acc6a1461026d5780632c4df7341461028b576101c4565b806301ffc9a7146101c9578063070f5c09146101f95780630a10df7c14610203575b600080fd5b6101e360048036038101906101de91906126f0565b610593565b6040516101f09190612738565b60405180910390f35b61020161060d565b005b61020b6106c2565b604051610218919061276c565b60405180910390f35b61023b600480360381019061023691906127e5565b6106c8565b005b61025760048036038101906102529190612848565b61077f565b6040516102649190612884565b60405180910390f35b61027561079f565b6040516102829190612884565b60405180910390f35b6102a560048036038101906102a091906127e5565b6107c3565b005b6102c160048036038101906102bc919061289f565b6108b0565b005b6102dd60048036038101906102d8919061289f565b6108d1565b005b6102f960048036038101906102f4919061290b565b610954565b6040516103069190612947565b60405180910390f35b610317610987565b6040516103249190612738565b60405180910390f35b610335610f32565b6040516103429190612947565b60405180910390f35b610365600480360381019061036091906127e5565b610f5c565b6040516103729190612a1d565b60405180910390f35b610395600480360381019061039091906127e5565b6110b5565b6040516103a29190612738565b60405180910390f35b6103c560048036038101906103c09190612a38565b61110e565b005b6103e160048036038101906103dc91906127e5565b6112e4565b6040516103ee9190612738565b60405180910390f35b610411600480360381019061040c91906127e5565b611304565b6040516104249796959493929190612a8b565b60405180910390f35b6104476004803603810190610442919061289f565b6113a0565b6040516104549190612738565b60405180910390f35b61046561140b565b604051610472919061276c565b60405180910390f35b61049560048036038101906104909190612a38565b611415565b005b61049f6114cf565b005b6104a9611583565b6040516104b69190612884565b60405180910390f35b6104d960048036038101906104d491906127e5565b61158a565b005b6104f560048036038101906104f09190612afa565b611641565b6040516105029190612738565b60405180910390f35b6105256004803603810190610520919061289f565b611e30565b005b61052f611e51565b60405161053c919061276c565b60405180910390f35b61055f600480360381019061055a91906127e5565b611e57565b005b61057b6004803603810190610576919061290b565b611e98565b60405161058a93929190612b3a565b60405180910390f35b60007f7965db0b000000000000000000000000000000000000000000000000000000007bffffffffffffffffffffffffffffffffffffffffffffffffffffffff1916827bffffffffffffffffffffffffffffffffffffffffffffffffffffffff19161480610606575061060582611ec2565b5b9050919050565b6000801b61061a81611f2c565b60cc60009054906101000a900460ff161561066a576040517f08c379a000000000000000000000000000000000000000000000000000000000815260040161066190612bce565b60405180910390fd5b600160cc60006101000a81548160ff02191690831515021790555060ca547f927e6cd2dce24f32508868820cdc35f09d9de0f4b44e945114110125196fba9f426040516106b7919061276c565b60405180910390a250565b60cb5481565b6000801b6106d581611f2c565b600160d060008473ffffffffffffffffffffffffffffffffffffffff1673ffffffffffffffffffffffffffffffffffffffff16815260200190815260200160002060006101000a81548160ff0219169083151502179055508173ffffffffffffffffffffffffffffffffffffffff167fc248494946982687fc2d1ea8eb7a419ce5c68d849320227bc70ce5a73555ca8442604051610773919061276c565b60405180910390a25050565b600060976000838152602001908152602001600020600101549050919050565b7fdf8b4c520ffe197c5343c6f5aec59570151ef9a492f2c624fd45ddde6135ec4281565b6000801b6107d081611f2c565b600073ffffffffffffffffffffffffffffffffffffffff168273ffffffffffffffffffffffffffffffffffffffff160361080d5761080c612bee565b5b8160cc60016101000a81548173ffffffffffffffffffffffffffffffffffffffff021916908373ffffffffffffffffffffffffffffffffffffffff16021790555060ca547f2520d78f3de7650dc7be68b9092d7a40f1f973681d417f4339711dd81f174fc160cc60019054906101000a900473ffffffffffffffffffffffffffffffffffffffff16426040516108a4929190612c1d565b60405180910390a25050565b6108b98261077f565b6108c281611f2c565b6108cc8383611f40565b505050565b6108d9612021565b73ffffffffffffffffffffffffffffffffffffffff168173ffffffffffffffffffffffffffffffffffffffff1614610946576040517f08c379a000000000000000000000000000000000000000000000000000000000815260040161093d90612cb8565b60405180910390fd5b6109508282612029565b5050565b60cf6020528060005260406000206000915054906101000a900473ffffffffffffffffffffffffffffffffffffffff1681565b600061099161210b565b60cc60009054906101000a900460ff16156109e1576040517f08c379a00000000000000000000000000000000000000000000000000000000081526004016109d890612d24565b60405180910390fd5b6001151560ce60006109f1612021565b73ffffffffffffffffffffffffffffffffffffffff1673ffffffffffffffffffffffffffffffffffffffff16815260200190815260200160002060060160009054906101000a900460ff16151514610a7e576040517f08c379a0000000000000000000000000000000000000000000000000000000008152600401610a7590612d90565b60405180910390fd5b60cd600060ca548152602001908152602001600020600001544210610ad8576040517f08c379a0000000000000000000000000000000000000000000000000000000008152600401610acf90612dfc565b60405180910390fd5b6203f48060cd600060ca54815260200190815260200160002060000154610aff9190612e4b565b4211610b40576040517f08c379a0000000000000000000000000000000000000000000000000000000008152600401610b3790612ecb565b60405180910390fd5b6000151560ce6000610b50612021565b73ffffffffffffffffffffffffffffffffffffffff1673ffffffffffffffffffffffffffffffffffffffff16815260200190815260200160002060060160009054906101000a9050505060ce6000610ba6612021565b73ffffffffffffffffffffffffffffffffffffffff1673ffffffffffffffffffffffffffffffffffffffff16815260200190815260200160002060020160009054906101000a900473ffffffffffffffffffffffffffffffffffffffff1673ffffffffffffffffffffffffffffffffffffffff166370a08231306040518263ffffffff1660e01b8152600401610c3c9190612947565b602060405180830381865afa158015610c59573d6000803e3d6000fd5b505050506040513d601f19601f82011682018060405250810190610c7d9190612f00565b60ce6000610c89612021565b73ffffffffffffffffffffffffffffffffffffffff1673ffffffffffffffffffffffffffffffffffffffff168152602001908152602001600020600301541115610d08576040517f08c379a0000000000000000000000000000000000000000000000000000000008152600401610cff90612f9f565b60405180910390fd5b600060ce6000610d16612021565b73ffffffffffffffffffffffffffffffffffffffff1673ffffffffffffffffffffffffffffffffffffffff16815260200190815260200160002060020160009054906101000a900473ffffffffffffffffffffffffffffffffffffffff1673ffffffffffffffffffffffffffffffffffffffff1663a9059cbb610d97612021565b60ce6000610da3612021565b73ffffffffffffffffffffffffffffffffffffffff1673ffffffffffffffffffffffffffffffffffffffff168152602001908152602001600020600301546040518363ffffffff1660e01b8152600401610dfe929190612c1d565b6020604051808303816000875af1158015610e1d573d6000803e3d6000fd5b505050506040513d601f19601f82011682018060405250810190610e419190612feb565b905080610e83576040517f08c379a0000000000000000000000000000000000000000000000000000000008152600401610e7a90613064565b60405180910390fd5b60ca54610e8e612021565b73ffffffffffffffffffffffffffffffffffffffff167f818e95ced3607090ed462413c25c7528f05ec9309ce9094a5a89cdb4f1777dc060ce6000610ed1612021565b73ffffffffffffffffffffffffffffffffffffffff1673ffffffffffffffffffffffffffffffffffffffff16815260200190815260200160002042604051610f1a9291906131f3565b60405180910390a36001915050610f2f61215a565b90565b600060c960009054906101000a900473ffffffffffffffffffffffffffffffffffffffff16905090565b610f64612626565b60ce60008373ffffffffffffffffffffffffffffffffffffffff1673ffffffffffffffffffffffffffffffffffffffff1681526020019081526020016000206040518060e0016040529081600082015481526020016001820160009054906101000a900473ffffffffffffffffffffffffffffffffffffffff1673ffffffffffffffffffffffffffffffffffffffff1673ffffffffffffffffffffffffffffffffffffffff1681526020016002820160009054906101000a900473ffffffffffffffffffffffffffffffffffffffff1673ffffffffffffffffffffffffffffffffffffffff1673ffffffffffffffffffffffffffffffffffffffff168152602001600382015481526020016004820160009054906101000a900460ff16151515158152602001600582015481526020016006820160009054906101000a900460ff1615151515815250509050919050565b600060ce60008373ffffffffffffffffffffffffffffffffffffffff1673ffffffffffffffffffffffffffffffffffffffff16815260200190815260200160002060040160009054906101000a900460ff169050919050565b60008060019054906101000a900460ff1615905080801561113f5750600160008054906101000a900460ff1660ff16105b8061116c575061114e30612163565b15801561116b5750600160008054906101000a900460ff1660ff16145b5b6111ab576040517f08c379a00000000000000000000000000000000000000000000000000000000081526004016111a29061328f565b60405180910390fd5b60016000806101000a81548160ff021916908360ff16021790555080156111e8576001600060016101000a81548160ff0219169083151502179055505b6111f0612186565b6112046000801b6111ff612021565b611f40565b61120c6121d7565b61121c611217612021565b61222f565b60ca600081548092919061122f906132af565b919050555060405180606001604052808581526020018481526020018381525060cd600060ca54815260200190815260200160002060008201518160000155602082015181600101556040820151816002015590505080156112de5760008060016101000a81548160ff0219169083151502179055507f7f26b83ff96e1f2b6a682f133852f6798a09c465da95921460cefb384740249860016040516112d59190613349565b60405180910390a15b50505050565b60d06020528060005260406000206000915054906101000a900460ff1681565b60ce6020528060005260406000206000915090508060000154908060010160009054906101000a900473ffffffffffffffffffffffffffffffffffffffff16908060020160009054906101000a900473ffffffffffffffffffffffffffffffffffffffff16908060030154908060040160009054906101000a900460ff16908060050154908060060160009054906101000a900460ff16905087565b60006097600084815260200190815260200160002060000160008373ffffffffffffffffffffffffffffffffffffffff1673ffffffffffffffffffffffffffffffffffffffff16815260200190815260200160002060009054906101000a900460ff16905092915050565b600060cb54905090565b6000801b61142281611f2c565b60405180606001604052808581526020018481526020018381525060cd600060ca54815260200190815260200160002060008201518160000155602082015181600101556040820151816002015590505060ca547f2265491eb8a5d3a6458b0b5369e3fb88dd0f7167bc8b9e32501a318e2714623d604051806060016040528087815260200186815260200185815250426040516114c19291906133a6565b60405180910390a250505050565b6000801b6114dc81611f2c565b60cc60009054906101000a900460ff1661152b576040517f08c379a00000000000000000000000000000000000000000000000000000000081526004016115229061341b565b60405180910390fd5b600060cc60006101000a81548160ff02191690831515021790555060ca547ff608654a6d8e1785594639dd55babb61d7ae157382015f904a24224e50333b1d42604051611578919061276c565b60405180910390a250565b6000801b81565b6000801b61159781611f2c565b600060d060008473ffffffffffffffffffffffffffffffffffffffff1673ffffffffffffffffffffffffffffffffffffffff16815260200190815260200160002060006101000a81548160ff0219169083151502179055508173ffffffffffffffffffffffffffffffffffffffff167fd67a8b7855b711d4aefe6690998f0fbd86889b51ce16fad0850a3416d0265abd42604051611635919061276c565b60405180910390a25050565b600061164b61210b565b60cc60009054906101000a900460ff161561169b576040517f08c379a000000000000000000000000000000000000000000000000000000000815260040161169290613487565b60405180910390fd5b60ce60006116a7612021565b73ffffffffffffffffffffffffffffffffffffffff1673ffffffffffffffffffffffffffffffffffffffff16815260200190815260200160002060040160009054906101000a900460ff1615611732576040517f08c379a0000000000000000000000000000000000000000000000000000000008152600401611729906134f3565b60405180910390fd5b60008303611775576040517f08c379a000000000000000000000000000000000000000000000000000000000815260040161176c9061355f565b60405180910390fd5b8260cd600060ca5481526020019081526020016000206002015411156117d0576040517f08c379a00000000000000000000000000000000000000000000000000000000081526004016117c7906135cb565b60405180910390fd5b6001151560d060008473ffffffffffffffffffffffffffffffffffffffff1673ffffffffffffffffffffffffffffffffffffffff16815260200190815260200160002060009054906101000a900460ff16151514611863576040517f08c379a000000000000000000000000000000000000000000000000000000000815260040161185a90613637565b60405180910390fd5b60006040518060e00160405280600160cb5461187f9190613657565b815260200161188c612021565b73ffffffffffffffffffffffffffffffffffffffff1681526020018473ffffffffffffffffffffffffffffffffffffffff1681526020018581526020016001151581526020014281526020016001151581525090508060ce60006118ee612021565b73ffffffffffffffffffffffffffffffffffffffff1673ffffffffffffffffffffffffffffffffffffffff1681526020019081526020016000206000820151816000015560208201518160010160006101000a81548173ffffffffffffffffffffffffffffffffffffffff021916908373ffffffffffffffffffffffffffffffffffffffff16021790555060408201518160020160006101000a81548173ffffffffffffffffffffffffffffffffffffffff021916908373ffffffffffffffffffffffffffffffffffffffff1602179055506060820151816003015560808201518160040160006101000a81548160ff02191690831515021790555060a0820151816005015560c08201518160060160006101000a81548160ff021916908315150217905550905050611a1f612021565b60cf6000600160cb54611a329190613657565b815260200190815260200160002060006101000a81548173ffffffffffffffffffffffffffffffffffffffff021916908373ffffffffffffffffffffffffffffffffffffffff16021790555060cb6000815480929190611a91906132af565b9190505550600060ce6000611aa4612021565b73ffffffffffffffffffffffffffffffffffffffff1673ffffffffffffffffffffffffffffffffffffffff16815260200190815260200160002060020160009054906101000a900473ffffffffffffffffffffffffffffffffffffffff1673ffffffffffffffffffffffffffffffffffffffff1663dd62ed3e611b25612021565b306040518363ffffffff1660e01b8152600401611b4392919061368b565b602060405180830381865afa158015611b60573d6000803e3d6000fd5b505050506040513d601f19601f82011682018060405250810190611b849190612f00565b9050611bc56040518060400160405280600c81526020017f6f7572416c6c6f77616e6365000000000000000000000000000000000000000081525082612273565b611bff604051806060016040528060278152602001613c846027913960cd600060ca54815260200190815260200160002060020154612273565b8060cd600060ca548152602001908152602001600020600201541115611c5a576040517f08c379a0000000000000000000000000000000000000000000000000000000008152600401611c5190613726565b60405180910390fd5b60008473ffffffffffffffffffffffffffffffffffffffff16611c7b612021565b60cc60019054906101000a900473ffffffffffffffffffffffffffffffffffffffff1688604051602401611cb193929190613746565b6040516020818303038152906040527f23b872dd000000000000000000000000000000000000000000000000000000007bffffffffffffffffffffffffffffffffffffffffffffffffffffffff19166020820180517bffffffffffffffffffffffffffffffffffffffffffffffffffffffff8381831617835250505050604051611d3b91906137ee565b6000604051808303816000865af19150503d8060008114611d78576040519150601f19603f3d011682016040523d82523d6000602084013e611d7d565b606091505b5050905080611dc1576040517f08c379a0000000000000000000000000000000000000000000000000000000008152600401611db890613851565b60405180910390fd5b60ca54611dcc612021565b73ffffffffffffffffffffffffffffffffffffffff167f875b402ff9ffd12cff596917d9864f9405216ae7222913472a9d94273a67f4518542604051611e13929190613871565b60405180910390a360019350505050611e2a61215a565b92915050565b611e398261077f565b611e4281611f2c565b611e4c8383612029565b505050565b60ca5481565b6000801b611e6481611f2c565b6000611e6e610f32565b9050611e7d6000801b84611f40565b611e868361222f565b611e936000801b82612029565b505050565b60cd6020528060005260406000206000915090508060000154908060010154908060020154905083565b60007f01ffc9a7000000000000000000000000000000000000000000000000000000007bffffffffffffffffffffffffffffffffffffffffffffffffffffffff1916827bffffffffffffffffffffffffffffffffffffffffffffffffffffffff1916149050919050565b611f3d81611f38612021565b61230f565b50565b611f4a82826113a0565b61201d5760016097600084815260200190815260200160002060000160008373ffffffffffffffffffffffffffffffffffffffff1673ffffffffffffffffffffffffffffffffffffffff16815260200190815260200160002060006101000a81548160ff021916908315150217905550611fc2612021565b73ffffffffffffffffffffffffffffffffffffffff168173ffffffffffffffffffffffffffffffffffffffff16837f2f8788117e7eff1d82e926ec794901d17c78024a50270940304540a733656f0d60405160405180910390a45b5050565b600033905090565b61203382826113a0565b156121075760006097600084815260200190815260200160002060000160008373ffffffffffffffffffffffffffffffffffffffff1673ffffffffffffffffffffffffffffffffffffffff16815260200190815260200160002060006101000a81548160ff0219169083151502179055506120ac612021565b73ffffffffffffffffffffffffffffffffffffffff168173ffffffffffffffffffffffffffffffffffffffff16837ff6391f5c32d9c69d2a47ea670b442974b53935d1edc7fd64eb21e047a839171b60405160405180910390a45b5050565b600260015403612150576040517f08c379a0000000000000000000000000000000000000000000000000000000008152600401612147906138e7565b60405180910390fd5b6002600181905550565b60018081905550565b6000808273ffffffffffffffffffffffffffffffffffffffff163b119050919050565b600060019054906101000a900460ff166121d5576040517f08c379a00000000000000000000000000000000000000000000000000000000081526004016121cc90613979565b60405180910390fd5b565b600060019054906101000a900460ff16612226576040517f08c379a000000000000000000000000000000000000000000000000000000000815260040161221d90613979565b60405180910390fd5b60018081905550565b8060c960006101000a81548173ffffffffffffffffffffffffffffffffffffffff021916908373ffffffffffffffffffffffffffffffffffffffff16021790555050565b61230b82826040516024016122899291906139ee565b6040516020818303038152906040527fb60e72cc000000000000000000000000000000000000000000000000000000007bffffffffffffffffffffffffffffffffffffffffffffffffffffffff19166020820180517bffffffffffffffffffffffffffffffffffffffffffffffffffffffff8381831617835250505050612394565b5050565b61231982826113a0565b61239057612326816123bd565b6123348360001c60206123ea565b604051602001612345929190613af2565b6040516020818303038152906040526040517f08c379a00000000000000000000000000000000000000000000000000000000081526004016123879190613b2c565b60405180910390fd5b5050565b60008151905060006a636f6e736f6c652e6c6f679050602083016000808483855afa5050505050565b60606123e38273ffffffffffffffffffffffffffffffffffffffff16601460ff166123ea565b9050919050565b6060600060028360026123fd9190613b4e565b6124079190613657565b67ffffffffffffffff8111156124205761241f613b90565b5b6040519080825280601f01601f1916602001820160405280156124525781602001600182028036833780820191505090505b5090507f30000000000000000000000000000000000000000000000000000000000000008160008151811061248a57612489613bbf565b5b60200101907effffffffffffffffffffffffffffffffffffffffffffffffffffffffffffff1916908160001a9053507f7800000000000000000000000000000000000000000000000000000000000000816001815181106124ee576124ed613bbf565b5b60200101907effffffffffffffffffffffffffffffffffffffffffffffffffffffffffffff1916908160001a9053506000600184600261252e9190613b4e565b6125389190613657565b90505b60018111156125d8577f3031323334353637383961626364656600000000000000000000000000000000600f86166010811061257a57612579613bbf565b5b1a60f81b82828151811061259157612590613bbf565b5b60200101907effffffffffffffffffffffffffffffffffffffffffffffffffffffffffffff1916908160001a905350600485901c9450806125d190613bee565b905061253b565b506000841461261c576040517f08c379a000000000000000000000000000000000000000000000000000000000815260040161261390613c63565b60405180910390fd5b8091505092915050565b6040518060e0016040528060008152602001600073ffffffffffffffffffffffffffffffffffffffff168152602001600073ffffffffffffffffffffffffffffffffffffffff16815260200160008152602001600015158152602001600081526020016000151581525090565b600080fd5b60007fffffffff0000000000000000000000000000000000000000000000000000000082169050919050565b6126cd81612698565b81146126d857600080fd5b50565b6000813590506126ea816126c4565b92915050565b60006020828403121561270657612705612693565b5b6000612714848285016126db565b91505092915050565b60008115159050919050565b6127328161271d565b82525050565b600060208201905061274d6000830184612729565b92915050565b6000819050919050565b61276681612753565b82525050565b6000602082019050612781600083018461275d565b92915050565b600073ffffffffffffffffffffffffffffffffffffffff82169050919050565b60006127b282612787565b9050919050565b6127c2816127a7565b81146127cd57600080fd5b50565b6000813590506127df816127b9565b92915050565b6000602082840312156127fb576127fa612693565b5b6000612809848285016127d0565b91505092915050565b6000819050919050565b61282581612812565b811461283057600080fd5b50565b6000813590506128428161281c565b92915050565b60006020828403121561285e5761285d612693565b5b600061286c84828501612833565b91505092915050565b61287e81612812565b82525050565b60006020820190506128996000830184612875565b92915050565b600080604083850312156128b6576128b5612693565b5b60006128c485828601612833565b92505060206128d5858286016127d0565b9150509250929050565b6128e881612753565b81146128f357600080fd5b50565b600081359050612905816128df565b92915050565b60006020828403121561292157612920612693565b5b600061292f848285016128f6565b91505092915050565b612941816127a7565b82525050565b600060208201905061295c6000830184612938565b92915050565b61296b81612753565b82525050565b61297a816127a7565b82525050565b6129898161271d565b82525050565b60e0820160008201516129a56000850182612962565b5060208201516129b86020850182612971565b5060408201516129cb6040850182612971565b5060608201516129de6060850182612962565b5060808201516129f16080850182612980565b5060a0820151612a0460a0850182612962565b5060c0820151612a1760c0850182612980565b50505050565b600060e082019050612a32600083018461298f565b92915050565b600080600060608486031215612a5157612a50612693565b5b6000612a5f868287016128f6565b9350506020612a70868287016128f6565b9250506040612a81868287016128f6565b9150509250925092565b600060e082019050612aa0600083018a61275d565b612aad6020830189612938565b612aba6040830188612938565b612ac7606083018761275d565b612ad46080830186612729565b612ae160a083018561275d565b612aee60c0830184612729565b98975050505050505050565b60008060408385031215612b1157612b10612693565b5b6000612b1f858286016128f6565b9250506020612b30858286016127d0565b9150509250929050565b6000606082019050612b4f600083018661275d565b612b5c602083018561275d565b612b69604083018461275d565b949350505050565b600082825260208201905092915050565b7f416c726561647920706175736564000000000000000000000000000000000000600082015250565b6000612bb8600e83612b71565b9150612bc382612b82565b602082019050919050565b60006020820190508181036000830152612be781612bab565b9050919050565b7f4e487b7100000000000000000000000000000000000000000000000000000000600052600160045260246000fd5b6000604082019050612c326000830185612938565b612c3f602083018461275d565b9392505050565b7f416363657373436f6e74726f6c3a2063616e206f6e6c792072656e6f756e636560008201527f20726f6c657320666f722073656c660000000000000000000000000000000000602082015250565b6000612ca2602f83612b71565b9150612cad82612c46565b604082019050919050565b60006020820190508181036000830152612cd181612c95565b9050919050565b7f526566756e6420426f6f6b696e67207061757365640000000000000000000000600082015250565b6000612d0e601583612b71565b9150612d1982612cd8565b602082019050919050565b60006020820190508181036000830152612d3d81612d01565b9050919050565b7f416c726561647920726566756e64656400000000000000000000000000000000600082015250565b6000612d7a601083612b71565b9150612d8582612d44565b602082019050919050565b60006020820190508181036000830152612da981612d6d565b9050919050565b7f436f6e6e6f7420726566756e642061667465722073746172742074696d650000600082015250565b6000612de6601e83612b71565b9150612df182612db0565b602082019050919050565b60006020820190508181036000830152612e1581612dd9565b9050919050565b7f4e487b7100000000000000000000000000000000000000000000000000000000600052601160045260246000fd5b6000612e5682612753565b9150612e6183612753565b9250828203905081811115612e7957612e78612e1c565b5b92915050565b7f526566756e642074696d65206e6f742079657420737461727465640000000000600082015250565b6000612eb5601b83612b71565b9150612ec082612e7f565b602082019050919050565b60006020820190508181036000830152612ee481612ea8565b9050919050565b600081519050612efa816128df565b92915050565b600060208284031215612f1657612f15612693565b5b6000612f2484828501612eeb565b91505092915050565b7f4e6f7420656e6f75676820746f6b656e7320696e2074686520636f6e7472616360008201527f7400000000000000000000000000000000000000000000000000000000000000602082015250565b6000612f89602183612b71565b9150612f9482612f2d565b604082019050919050565b60006020820190508181036000830152612fb881612f7c565b9050919050565b612fc88161271d565b8114612fd357600080fd5b50565b600081519050612fe581612fbf565b92915050565b60006020828403121561300157613000612693565b5b600061300f84828501612fd6565b91505092915050565b7f546f6b656e207472616e73666572206661696c65640000000000000000000000600082015250565b600061304e601583612b71565b915061305982613018565b602082019050919050565b6000602082019050818103600083015261307d81613041565b9050919050565b60008160001c9050919050565b6000819050919050565b60006130ae6130a983613084565b613091565b9050919050565b600073ffffffffffffffffffffffffffffffffffffffff82169050919050565b60006130e86130e383613084565b6130b5565b9050919050565b600060ff82169050919050565b600061310f61310a83613084565b6130ef565b9050919050565b60e08201600080830154905061312b8161309b565b6131386000860182612962565b5060018301549050613149816130d5565b6131566020860182612971565b5060028301549050613167816130d5565b6131746040860182612971565b50600383015490506131858161309b565b6131926060860182612962565b50600483015490506131a3816130fc565b6131b06080860182612980565b50600583015490506131c18161309b565b6131ce60a0860182612962565b50600683015490506131df816130fc565b6131ec60c0860182612980565b5050505050565b6000610100820190506132096000830185613116565b61321660e083018461275d565b9392505050565b7f496e697469616c697a61626c653a20636f6e747261637420697320616c72656160008201527f647920696e697469616c697a6564000000000000000000000000000000000000602082015250565b6000613279602e83612b71565b91506132848261321d565b604082019050919050565b600060208201905081810360008301526132a88161326c565b9050919050565b60006132ba82612753565b91507fffffffffffffffffffffffffffffffffffffffffffffffffffffffffffffffff82036132ec576132eb612e1c565b5b600182019050919050565b6000819050919050565b600060ff82169050919050565b6000819050919050565b600061333361332e613329846132f7565b61330e565b613301565b9050919050565b61334381613318565b82525050565b600060208201905061335e600083018461333a565b92915050565b60608201600082015161337a6000850182612962565b50602082015161338d6020850182612962565b5060408201516133a06040850182612962565b50505050565b60006080820190506133bb6000830185613364565b6133c8606083018461275d565b9392505050565b7f4e6f742070617573656400000000000000000000000000000000000000000000600082015250565b6000613405600a83612b71565b9150613410826133cf565b602082019050919050565b60006020820190508181036000830152613434816133f8565b9050919050565b7f5072652d426f6f6b696e67207061757365640000000000000000000000000000600082015250565b6000613471601283612b71565b915061347c8261343b565b602082019050919050565b600060208201905081810360008301526134a081613464565b9050919050565b7f416c72656164792070726520626f6f6b65640000000000000000000000000000600082015250565b60006134dd601283612b71565b91506134e8826134a7565b602082019050919050565b6000602082019050818103600083015261350c816134d0565b9050919050565b7f696e76616c696420616d6f756e74206973207a65726f00000000000000000000600082015250565b6000613549601683612b71565b915061355482613513565b602082019050919050565b600060208201905081810360008301526135788161353c565b9050919050565b7f6c657373207468616e206d696e696d756d20616d6f756e740000000000000000600082015250565b60006135b5601883612b71565b91506135c08261357f565b602082019050919050565b600060208201905081810360008301526135e4816135a8565b9050919050565b7f6d61726b6574206e6f7420737570706f7274656420746f206275790000000000600082015250565b6000613621601b83612b71565b915061362c826135eb565b602082019050919050565b6000602082019050818103600083015261365081613614565b9050919050565b600061366282612753565b915061366d83612753565b925082820190508082111561368557613684612e1c565b5b92915050565b60006040820190506136a06000830185612938565b6136ad6020830184612938565b9392505050565b7f4d616b65207375726520746f2061646420656e6f75676820616c6c6f77616e6360008201527f6500000000000000000000000000000000000000000000000000000000000000602082015250565b6000613710602183612b71565b915061371b826136b4565b604082019050919050565b6000602082019050818103600083015261373f81613703565b9050919050565b600060608201905061375b6000830186612938565b6137686020830185612938565b613775604083018461275d565b949350505050565b600081519050919050565b600081905092915050565b60005b838110156137b1578082015181840152602081019050613796565b60008484015250505050565b60006137c88261377d565b6137d28185613788565b93506137e2818560208601613793565b80840191505092915050565b60006137fa82846137bd565b915081905092915050565b7f546f6b656e207061796d656e74206661696c6564000000000000000000000000600082015250565b600061383b601483612b71565b915061384682613805565b602082019050919050565b6000602082019050818103600083015261386a8161382e565b9050919050565b600061010082019050613887600083018561298f565b61389460e083018461275d565b9392505050565b7f5265656e7472616e637947756172643a207265656e7472616e742063616c6c00600082015250565b60006138d1601f83612b71565b91506138dc8261389b565b602082019050919050565b60006020820190508181036000830152613900816138c4565b9050919050565b7f496e697469616c697a61626c653a20636f6e7472616374206973206e6f74206960008201527f6e697469616c697a696e67000000000000000000000000000000000000000000602082015250565b6000613963602b83612b71565b915061396e82613907565b604082019050919050565b6000602082019050818103600083015261399281613956565b9050919050565b600081519050919050565b6000601f19601f8301169050919050565b60006139c082613999565b6139ca8185612b71565b93506139da818560208601613793565b6139e3816139a4565b840191505092915050565b60006040820190508181036000830152613a0881856139b5565b9050613a17602083018461275d565b9392505050565b600081905092915050565b7f416363657373436f6e74726f6c3a206163636f756e7420000000000000000000600082015250565b6000613a5f601783613a1e565b9150613a6a82613a29565b601782019050919050565b6000613a8082613999565b613a8a8185613a1e565b9350613a9a818560208601613793565b80840191505092915050565b7f206973206d697373696e6720726f6c6520000000000000000000000000000000600082015250565b6000613adc601183613a1e565b9150613ae782613aa6565b601182019050919050565b6000613afd82613a52565b9150613b098285613a75565b9150613b1482613acf565b9150613b208284613a75565b91508190509392505050565b60006020820190508181036000830152613b4681846139b5565b905092915050565b6000613b5982612753565b9150613b6483612753565b9250828202613b7281612753565b91508282048414831517613b8957613b88612e1c565b5b5092915050565b7f4e487b7100000000000000000000000000000000000000000000000000000000600052604160045260246000fd5b7f4e487b7100000000000000000000000000000000000000000000000000000000600052603260045260246000fd5b6000613bf982612753565b915060008203613c0c57613c0b612e1c565b5b600182039050919050565b7f537472696e67733a20686578206c656e67746820696e73756666696369656e74600082015250565b6000613c4d602083612b71565b9150613c5882613c17565b602082019050919050565b60006020820190508181036000830152613c7c81613c40565b905091905056fe70726573616c655b70726573616c6549645d2e6d696e5f7075726368617365735f696e5f757364a26469706673582212204292933dfbd159783df118334cda1bce5553a572fe646c4e78f4e4c6e9f4d14764736f6c63430008110033",
  "linkReferences": {},
  "deployedLinkReferences": {}
}